:020000040800F2
:10000000F04C0020050200082F0A0008270A00080B
:100010002B0A0008210A0008890E000800000000D1
:100020000000000000000000000000004501000882
:10003000250A000800000000A1010008F10B0008DB
:100040001F0200081F0200081F0200081F0200080C
:100050001F0200081F0200081F0200081F020008FC
:100060001F0200081F0200081F0200081F020008EC
:100070001F0200081F0200081F0200081F020008DC
:100080001F0200081F020008C50900081F0200081F
:100090001F0200081F0200081F0200081F020008BC
:1000A0001F0200081F0200081F0200081F020008AC
:1000B0001F0200081F020008810C00081F02000830
:1000C0001F0200081F0200081F0200081F0200088C
:1000D0001F0200081F020008A10C00081F020008F0
:1000E0001F0200081F0200081F0200081F0200086C
:1000F0001F0200081F0200081F0200081F0200085C
:100100001F0200081F0200081F0200081F0200084B
:100110001F0200081F0200081F0200081F0200083B
:100120001F0200081F0200081F0200081F0200082B
:10013000DFF80CD000F006FC00480047F538000856
:10014000F04C00202C4B19680868B0E8F04F80F3A1
:100150000988BFF36F8F4FF0000080F3118870475C
:100160000000000008480068006880F308884FF02D
:10017000000080F3148862B661B6BFF34F8FBFF3FF
:100180006F8F00DF00BF00BF08ED00E0DFF80C005C
:10019000016841F470010160704700BF88ED00E024
:1001A000EFF30980BFF36F8F134B1A681EF0100F27
:1001B00008BF20ED108A20E9F04F106009B44FF01D
:1001C000500080F31188BFF34F8FBFF36F8F05F09E
:1001D00029FD4FF0000080F3118809BC19680868F8
:1001E000B0E8F04F1EF0100F08BFB0EC108A80F39B
:1001F0000988BFF36F8F7047E4000020EFF305809C
:10020000704700000648804706480047FEE7FEE7C3
:10021000FEE7FEE7FEE7FEE7FEE7FEE7FEE7FEE7B6
:10022000050C00083101000840EA01039B0703D0D8
:1002300009E008C9121F08C0042AFAD203E011F825
:10024000013B00F8013B521EF9D27047D2B201E0E7
:1002500000F8012B491EFBD270470022F6E710B5CB
:1002600013460A4604461946FFF7F0FF204610BD24
:100270002DE9FE4F804681EA0300C00F0C46009036
:1002800021F0004123F00045B8EB0200A94105D25E
:100290004046214690461C460B46024623F000404D
:1002A000104347D0270DC7F30A00C3F30A51029049
:1002B000401A019040286BDAC3F3130040F4801B0E
:1002C0000098924620B10023D2EB030A63EB0B0B9C
:1002D00001985946C0F14002504600F0E5F9064643
:1002E0000D4650465946019A00F0EDF910EB080012
:1002F0006141002487EA115284EAE7731A4340D02F
:10030000009A62B3019A012A4FEA075215DC001BDA
:1003100061EB02014FF0004202EA0752CDE90042D0
:10032000001C41F5801132462B4600F024FA03B040
:10033000BDE8F08F40462146F9E7001B61EB020162
:10034000001C41F5801300185B412018A2F500172E
:1003500047EB030140EAD570B6196D4111E06D0815
:100360004FEA360645EAC0754FEA0752001B61EBBB
:100370000201001C41F5801149084FEA30000019C4
:10038000514132462B4603B0BDE8F04F00F0E4B9CE
:100390000098012240000023D0EB020263EBE073DF
:1003A000009821464FEAE074B8EB000061EB0401CD
:1003B000E9E783F000435BE781F0004158E72DE96E
:1003C000FE4F81EA030404F0004421F00041009450
:1003D0004FF0000B23F0004350EA01045ED052EAD4
:1003E00003045BD0C3F30A54C1F30A552C44A4F2AE
:1003F000F3340194A0FB0254C1F3130141F48011C2
:10040000C3F3130343F4801301FB024400FB034EC8
:10041000840A970A44EA815447EA8357A4FB076891
:1004200002958D0A05FB07854FEA932C04FB0C54BB
:100430002705029D4FEA065847EA1637B5EB08052F
:100440006EEB070C870E920E47EA811742EA831281
:10045000A7FB0201B6EB0B0164EB00042B0D43EA92
:100460000C335E1844EB1C50DA465146E7FB0201A0
:10047000C5F313044FEA0B3343EA14534FEA043233
:10048000019C43EA0603A4F10C040294009CCDE90C
:1004900000B400F070F903B0BDE8F08F0020014611
:1004A000F9E72DE9F04D81EA030404F0004B21F057
:1004B000004514464FF0000A23F0004150EA0502BF
:1004C00020D054EA01021DD0C5F30A570246C5F3F5
:1004D0001303C1F31300C1F30A5640F4801543F42B
:1004E0008013A7EB0608101BD64608F2FD3873EB05
:1004F000050002D308F1010801E092185B41B8F150
:10050000000F03DA00200146BDE8F08D00204FF413
:100510008011064684460EE0171B73EB050705D3D2
:10052000121B63EB050306434CEA010C49084FEA32
:10053000300092185B4150EA0107EDD152EA030006
:1005400012D082EA040083EA0501084305D0101B9B
:10055000AB4106D20122002306E000224FF0004307
:1005600002E06FF0010253101AEB06004CEB085149
:1005700010EB0A0041EB0B01BDE8F04D00F0ECB8C8
:100580000EB5C10F80EAE0700844CA07002140F2AE
:1005900033438DE80E000A460B4600F0ECF803B03A
:1005A00000BD0EB540F2334102910021CDE90011AA
:1005B0000A460B4600F0DFF803B000BD00F0004231
:1005C00030F000400AD0C10D01F56071C0F3160093
:1005D00042EA0151C208400711437047002001461A
:1005E000704701F0004330B421F0004150EA0102AD
:1005F00006D00A0DA2F56072C1F31301002A02DCD5
:1006000030BC00207047440F44EAC104C100E01828
:1006100030BC00EBC25000F068B830B50B46014664
:1006200000202022012409E021FA02F59D4205D391
:1006300003FA02F5491B04FA02F52844151EA2F13B
:100640000102F1DC30BD2DE9F05F05460020924645
:100650009B4688460646814640241BE02846414684
:100660004746224600F080F953465A46C01A914147
:1006700010D311461846224600F016F82D1A67EBE3
:1006800001084F4622460120002100F00DF817EB2B
:1006900000094E41201EA4F10104DFDC484631462A
:1006A0002A464346BDE8F09F202A04DB203A00FAA0
:1006B00002F1002070479140C2F1200320FA03F3B9
:1006C000194390407047202A06DBCB17203A41FAA5
:1006D00002F043EAE07306E041FA02F3D040C2F1CF
:1006E000200291400843194670470029A8BF70476F
:1006F000401C490008BF20F00100704710B4B0FA58
:1007000080FC00FA0CF050EA010404BF10BC7047F2
:1007100049B1CCF1200421FA04F411FA0CF118BF0C
:10072000012121430843A3EB0C01CB1D4FEA0061DB
:100730004FEA102042BF002010BC704700EBC350AE
:1007400010440029A4BF10BC7047401C490008BFDA
:1007500020F0010010BC704710B5141E73F10004A6
:1007600008DA401C41F1000192185B411A4301D1A3
:1007700020F0010010BD2DE9F04D92469B4611B1CD
:10078000B1FA81F202E0B0FA80F220329046FFF72F
:100790008BFF04460F4640EA0A0041EA0B0153462C
:1007A0005A46084313D0114653EA010019D0C8F144
:1007B0004002504600F0D8F805460E4650465946CD
:1007C0004246FFF771FF084305D0012004E02046B0
:1007D0003946BDE8F08D0020054346EAE0762C431B
:1007E00037430A986305E40AA0EB08000022FD0ADB
:1007F00044EA47540A3002D500200146E9E70105E2
:1008000010196941DDE9084500196941BDE8F04D5D
:10081000A2E770B521F0004303430CD0C1F30A55A1
:100820000024D5EB040564EB0403D617AD1AB341DD
:1008300002DB0020014670BD201841EB025170BD63
:100840002DE9F04D00231A461B1A8A4103DB0020D4
:100850000146BDE8F08DC1F30A52C1F3130141F422
:1008600080154FF0000BD10702D100186D41521EC8
:100870000027044640F2FF11384601EB620A3E466B
:100880008046024600204FF4801100F06DF8C21936
:100890007141BB1846EB0100B4EB030C75EB000C87
:1008A00004D3E41A65EB000517460E46241908F137
:1008B00001006D4180463428E3DDF91946EB06005E
:1008C000091BA84103D24FF0FF32134601E000227A
:1008D00013461BEB070046EB0A51BDE8F04DFFF74E
:1008E0003BBFC1F30A52C1F3130140F2FF3341F49D
:1008F00080119A4202DA00200146704740F23343E9
:100900009A42A2F2334202DC524200F02DB8FFF7C5
:10091000CBBE000030B5041E71F1000404DB4FF0C3
:100920000044404264EB0101141E73F1000405DB36
:100930001C464FF00043524263EB0403994208BF48
:10094000904230BD064C074D06E0E06840F00103E0
:1009500094E8070098471034AC42F6D3FFF7ECFB5D
:100960005867000878670008202A04DB203A21FA3B
:1009700002F00021704721FA02F3D040C2F12002B8
:10098000914008431946704730B58C1810F8012B78
:1009900012F00F0301D110F8013B120906D110F833
:1009A000012B03E010F8015B01F8015B5B1EF9D13C
:1009B00001E001F8013B521EFBD1A142E6D3002029
:1009C00030BD000010B50221104801F000FF0128E1
:1009D0001AD101210D4801F045FF0D49088002217F
:1009E0000A4801F06CFF0421084801F068FF09483B
:1009F00000685030074908600748006850300649D1
:100A0000086001200549087010BD00000024014065
:100A10001000002030000020480000201C000020B2
:100A200000BFFEE7704700BFFEE700BFFEE770476C
:100A300010B5002807DA0A07140E054A00F00F0364
:100A40001B1FD45403E00A07130E024A135410BDAF
:100A500018ED00E000E400E0FCB502462F2300BFE3
:100A600000208DF805008DF804008DF803008DF846
:100A7000020001208DF8010007208DF800002F23CF
:100A800000250521002409E0581EC3B2072C02DA14
:100A9000601CC4B202E00024481EC1B2505C802732
:100AA0002741384008B90029EEDCA3F10800C5B29F
:100AB0001EE0052118E0481E1DF8000000F080002F
:100AC00018B1002901DD012600E000261DF8010013
:100AD0004006000E0DF801001DF801003044C0B2C0
:100AE0000DF80100481EC1B2FF29E4DB681EC5B243
:100AF000002DDED1002106E0505C1DF80170784029
:100B00005054481CC1B20529F6DD082BA8DC10782A
:100B1000FCBD2DE9FF5F04460D4600260027B246C6
:100B20006006040E0120032301AA294600902046F6
:100B300002F016FC9DF804609DF805709DF8069083
:100B40008DF80D408DF80C50601CC0B28DF80B0074
:100B50008DF80A608DF8097000208DF8080002A851
:100B6000FFF77AFF834646EA0728404604B0BDE80F
:100B7000F09F000010B52DED088B00BF07215A2013
:100B8000FFF7C7FF0446FFF70CFD41EC1B0B9FED81
:100B9000130B53EC102BFFF712FC41EC1A0B9FEDDB
:100BA000110B53EC102BFFF704FC41EC190BFFF772
:100BB00018FD08EE100AB5EEC08AF1EE10FA0BDD52
:100BC0009FED0A0AB4EEC08AF1EE10FA04D2B0EE3C
:100BD000480ABDEC088B10BDD0E700007B14AE477F
:100BE000E17A943F66666666661271400000C8420C
:100BF00010B505F0FDFA012801D005F00DF902F05D
:100C00006FFA10BD08B51B48006840F47000194920
:100C100008601948006840F001001749086008465C
:100C2000406840F0800048600020009002E000989A
:100C3000401C009044F6206100988842F7D30E488B
:100C4000406820F003000C494860084600680B49E2
:100C50000840094908604FF41F0088600846006892
:100C600020F48020086000204860C86203F018FF6C
:100C700008BD000088ED00E000100240FFFFF6FE16
:100C800010B50121054804F066FB28B102F036F8E2
:100C90000121024804F05CFB10BD00000008004088
:100CA00070B52549254804F004FD002843D02448A8
:100CB0000088632830DA214804F078FCC5B2FF2DA3
:100CC0000ED100201E49088064211E48FFF7C5FA96
:100CD0001B490888411C1A4A11801A490D540AE020
:100CE00018480078FF2806D115490888411C144A85
:100CF000118014490D54134890F8570058B100243E
:100D000007E0422C04D10F48015D0FA000F0BEF8AF
:100D1000641C582CF5DB00BF0948008863280AD101
:100D20000CA000F0B3F800210648054A128881544F
:100D300000200349088070BD050305000044004001
:100D4000DE0000205C03002053504F32203D202560
:100D5000640D0A004572726F723A2072786275668D
:100D600066657220697320424F4F4D0D0A000000E6
:100D700010B5044640F2026003F00CFD40F2117021
:100D800003F008FD0423032218211F4802F0B6FBDC
:100D90000823032204211C4802F0B0FB1B4804F086
:100DA0000FFC2146194804F0B9FB0021174804F054
:100DB000BCFC0021154804F0A8FC0021134804F0F5
:100DC00094FC0021114804F05FFC00210F4804F05E
:100DD00053FC04210D4804F090FC08210B4804F05A
:100DE0009CFC0A4804F034FC40F20531074804F04A
:100DF00053FC4FF4C06002F053FE00220121262074
:100E000002F0ECFD10BD000000080140004400406D
:100E100010B540F2026003F0BDFC40F20E6003F03A
:100E2000B9FC4FF4007303221821154802F066FB49
:100E30004FF4806303220421114802F05FFB114844
:100E400004F0BEFB4FF4E1310E4804F067FB0021D3
:100E50000C4804F06AFC00210A4804F056FC00210A
:100E6000084804F042FC0421064804F046FC08212E
:100E7000044804F052FC034804F0EAFB10BD0000F3
:100E8000000801400038014000BFFEE70FB4054BE9
:100E900010B503A9044A029801F016F810BC5DF8D9
:100EA00014FB0000393200086001002003B40198EF
:100EB0004100009850EAC12018BF04204A0D18BF15
:100EC00040F0010040F2FF72B2EB515F08BF40F00A
:100ED0000200012808BF052002B070470000000092
:100EE0002DE9F04D2DED040B2DED0C8B96B0DDE9C9
:100EF0002350259CDDF888A025F0004624F000480A
:100F0000BAF1000F14BF0121002101EB4502FE4997
:100F100053184A1093422AD3002814BF01230023F8
:100F200003EB44030B44F9498B4220D358EA0001F8
:100F30009FEDF78B6FD0DFF8E0B35D4503D1BAF1D9
:100F4000000F05D187E0BAF1000F08BF002100D0E3
:100F5000012101EB450111F5001F08D8002814BF3D
:100F60000121002101EB440111F5001F0BD99DED7A
:100F7000241B9DED220B16B0BDEC0C8B04B0BDE81C
:100F8000F04D00F09DBE0027002DBCBFE349884511
:100F900021DAE3498845A8BF02271CDAC3451ADCD9
:100FA000E04901EB2851142908DDC1F1340220FA8F
:100FB00002F101FA02F282420DD108E058B9C1F102
:100FC000140228FA02F101FA02F2424503D101F0BB
:100FD0000101C1F1020756EA0A011DD1002C1BDAFA
:100FE000002D18BF022F01D0012F0AD0022000F0DF
:100FF000B3FE16B0BDEC0C8B04B0BDE8F04D00F0B4
:1010000047BE022000F0A8FE00F042FE51EC100B9B
:1010100081F0004183E01EE09FEDC39B9FEDC4ABD8
:10102000002872D1BD4880452DD105F1804010F5D2
:10103000801008BFBAF1000F0DD0B34515DC002CAD
:10104000A1BF9DED240B16B0BDEC0C8B04B0A8BF66
:10105000BDE8F08D12E0B0EE480AF0EE680A16B076
:10106000BDEC0C8B04B0BDE8F08D002C06DA9DEDD4
:10107000240B51EC100B81F0004150E0AE48784455
:1010800090ED000BEBE7D8454FD1002C4ADA2EB19A
:1010900086423BD1BAF1000F44D126E0BAF1000FED
:1010A00013D0022000F058FE00F026FE8DED020B5A
:1010B0009DED220B8DED000B10EE900A039961F36C
:1010C0001E0003909DED020BC9E78DED029B9DED87
:1010D000220B19EE901A10EE900A8DED000B61F3C1
:1010E0001E0003909DED020BB9E78DED02AB9DED67
:1010F000220B1AEE901A10EE900A8DED000B61F3A0
:101100001E0003909DED020BA9E729E00ADA9DED90
:10111000220B51EC180B53EC102BFFF7C2F941ECEA
:10112000100B9CE79DED220B99E7864218DAB4F18B
:10113000804F0DD0A4F10050B0F1FF5010D1002D20
:101140000EDB9DED220B51EC100B03F08BFBE6E761
:101150009DED220B53EC102B51EC100B00F0AEBCAC
:101160009DED220B51EC100B01F0E4FFBAF1000FE2
:10117000CDE90C0134D19FED720BDEB1A6F1E04058
:10118000B0F17F602CD1002D01DD002C0DDA002D97
:1011900001DD002C1FDB002D16DA002C14DB012FE3
:1011A00008BF9FED690B3FF45AAFB0EE490AF0EE6D
:1011B000690A54E7022F18BF002D0CD0012F0AD165
:1011C000002DFFF64CAF06E0002DB8BF002C07DA6B
:1011D000012F3FF444AFB0EE4A0AF0EE6A0A3EE750
:1011E000012000EBE57A5AEA07000CD058480025A8
:1011F00080457CDD57495848884514DDB0420DDBF9
:10120000002C19DB2BE0012000F0A6FD16B0BDEC90
:101210000C8B04B0BDE8F04D00F05EBDB34502DCC0
:10122000002C09DC1BE0864202DA002C17DA03E00E
:101230005E4527DD002C12DD022000F08DFD00F060
:101240005BFD10EE901A19EE900A8DED020B8DEDFC
:10125000009B61F31E0003909DED020BFFE6022050
:1012600000F07AFD00F058FD10EE901A18EE900A8A
:101270008DED020B8DED008B61F31E0003909DED53
:10128000020BECE69DED220B53EC182B51EC100BEE
:10129000FFF78FF89FED320BCDE90A0153EC102BCD
:1012A0009DED0A0B51EC100BFFF789F89FED2E1BFB
:1012B00053EC112BFFF780F89DED0A1B53EC112B1B
:1012C000FFF77DF89FED2A1B53EC112BFFF774F805
:1012D0009DED0A0B41EC190B53EC102B51EC100B4C
:1012E000FFF76DF853EC192BFFF769F800E07EE08B
:1012F0009FED210B41EC1A0B53EC102B9DED0A0BCB
:1013000051EC100B3CE00000FFFF1F00FFFF0F003F
:10131000000000000000F03F0000F03F0000F07F00
:101320000000404301FCFFFF000000000000F07FD0
:101330000000000000000000CE5600000000000089
:101340000000000000000080000000000000F0FF2E
:101350000000E0410000F043FFFFEF3F000000000D
:10136000000000000000D03F555555555555D53F5C
:10137000000000000000E03F000000604715F73F5C
:10138000FFF71DF841EC190B9FEDFD0B51EC1A0B0B
:1013900053EC102BFFF713F841EC1A0B9FEDFA0BEF
:1013A00053EC102B9DED0A0B51EC100BFFF707F8D7
:1013B00053EC1A2BFEF7FDFF41EC1A0B51EC190B05
:1013C00053EC1A2BFEF754FF0690CDE906519DED24
:1013D000060B53EC192B51EC100BFEF7EAFF53EC04
:1013E0001A2BFEF7E9FF41EC100B00F09FB900202B
:1013F000B6F5801F0EDA9FEDE60B53EC102B9DED3A
:101400000C0B51EC100BFEF7DAFFCDE90C016FF07D
:1014100034000E4600EB2650A0F2FF38C6F313004E
:10142000DD4940F07F6646F040568842D8BF002430
:1014300009DDDA498142C8BF012404DC0024A6F595
:10144000801608F10108D648784400EBC4000D96D8
:1014500090ED00BB9DED0C0B53EC1B2B51EC100BD6
:10146000FEF7A7FF9DED0C0B41EC1A0B53EC1B2B69
:1014700051EC100BFEF7FCFE41EC100B51EC180B7D
:1014800053EC102BFFF70DF841EC1C0B51EC1A0B31
:1014900053EC1C2BFEF793FF41EC190BC1488DED6B
:1014A000109B7844109590ED000B4FF0005040EAEF
:1014B000660000EB84408DED0A0B00F500200B90D8
:1014C0009DED0A0B53EC1B2B51EC100BFEF771FF3B
:1014D0009DED0C1B53EC112BFEF76EFF41EC100B36
:1014E00053EC102B9DED100B51EC100BFEF767FF2A
:1014F0009DED0A0B41EC1B0B53EC102B9DED100BDB
:1015000051EC100BFEF75BFF53EC1A2BFEF754FF68
:1015100053EC1B2BFEF74DFF53EC1C2BFEF74FFF3C
:1015200041EC1B0B53EC192B51EC190BFEF747FF49
:1015300041EC1A0B9C480621B0EE4A0AF0EE6A0A0A
:10154000784400F026FBB0EE40CAF0EE60CA53ECDF
:101550001A2B51EC1A0BFEF732FF53EC1C2BFEF743
:101560002EFF9DED100B41EC1A0B53EC192B51EC97
:10157000100BFEF77DFE53EC1B2BFEF720FF53EC08
:101580001A2BFEF775FE9DED100B41EC1A0B53EC78
:10159000102B51EC100BFEF712FF41EC1C0B9FEDD2
:1015A00084DB53EC1D2BFEF763FE53EC1A2BFEF786
:1015B0005FFE0A90CDE90A519DED0A0B53EC1D2BFD
:1015C00051EC100BFEF7F5FE53EC1C2BFEF7F1FE71
:1015D00053EC1A2BFEF7F0FE9DED0A0B41EC1C0BB1
:1015E00053EC102B9DED100B51EC100BFEF7E7FEAA
:1015F00041EC1A0B53EC192B51EC1C0BFEF7DFFEE0
:101600009DED0A0B41EC190B53EC102B51EC1B0B0D
:10161000FEF7D5FE53EC192BFEF72AFE41EC190B11
:1016200051EC1A0B53EC192BFEF722FE1090CDE96A
:1016300010519DED100B53EC1A2B51EC100BFEF7D3
:10164000B8FE53EC192BFEF7B7FE41EC190B9FEDDA
:101650005A0B53EC102B9DED100B51EC100BFEF7B9
:10166000AEFE41EC1A0B9FED560B51EC190B53ECEF
:10167000102BFEF7A4FE41EC190B9FED530B53EC1E
:10168000102B9DED100B51EC100BFEF798FE53EC58
:10169000192BFEF7EDFD41EC100B4D48784400EBA3
:1016A000C40090ED001B51EC100B53EC112BFEF716
:1016B000DFFD41EC190B4046FEF762FFCDE90A0160
:1016C00053EC192B51EC1A0BFEF7D2FD41EC100B29
:1016D0004048784400EBC40090ED00BB51EC100B87
:1016E00053EC1B2BFEF7C4FD9DED0A1B53EC112B95
:1016F000FEF7BEFD0690CDE906519DED0A0B53ECB9
:10170000102B9DED060B51EC100BFEF752FE53EC27
:101710001B2BFEF74EFE53EC1A2BFEF74AFE53EC42
:10172000192BFEF749FE41EC100B00BF781EB0EEFE
:1017300048AAF0EE68AA5AEA000008BF9FED268B7F
:101740009DED241B53EC102B8DED001B00959DEDA2
:10175000240B51EC100BFEF732FE9DED000B41EC1B
:10176000190B53EC102B9DED240B51EC100BFEF7D5
:1017700020FE9DED061B53EC112BFEF720FE2FE003
:10178000FE822B654715F73F44DF5DF80BAE543EF4
:1017900000000000000040438E9803007AB60B0062
:1017A0007C520000AA520000B4510000000000006A
:1017B0000000000000000840000000E009C7EE3F04
:1017C000FD033ADC09C7EE3FF5015B14E02F3EBE96
:1017D0004850000002500000000000000000F0BF70
:1017E00053EC192BFEF744FD9DED060B41EC190B54
:1017F00053EC102B9DED000B51EC100BFEF7DFFDB1
:10180000CDE910019DED100B51EC190B53EC102B91
:10181000FEF72EFDCDE902010C46AB498C422FDBD1
:10182000611A084318D19DED100B53EC102B9DED60
:10183000020B51EC100BFEF7BCFD41EC1B0B9FEDB6
:10184000A40B51EC190B53EC102BFEF711FD53ECCC
:101850001B2BFFF75FF82DD2022000F07DFA00F07D
:101860004BFA10EE901A18EE900A8DED020B8DEDEA
:10187000008B61F31E0003909DED020BFFF7EFBBA1
:10188000954A24F00041914214D3944921440843DD
:101890007FF4E5AC9DED100B53EC102B9DED020B8E
:1018A00051EC100BFEF785FD53EC192BFFF732F8C6
:1018B0007FF6D5AC24F0004089498A4A002601EB26
:1018C000205182422BDA481C4FF4801121FA00F09B
:1018D0002044854AC0F30A517A44A1F2FF3192EDC7
:1018E000000B824A8DED0A0BCA4020EA0202C0F3C7
:1018F000130040F48010C1F1140120FA01F60B929C
:10190000002CB8BF76429DED0A0B53EC102B9DEDD9
:10191000100B51EC100BFEF74CFDCDE910019DEDC5
:10192000100B51EC190B53EC102BFEF7A1FC9FEDA3
:10193000700B0A90CDE90A5153EC102B9DED0A0B68
:1019400051EC100BFEF73BFD41EC1B0B9FED6A0BBE
:1019500053EC102B9DED0A0B51EC100BFEF72FFDF5
:101960009DED100B41EC1C0B53EC102B9DED0A0B65
:1019700051EC100BFEF71DFD53EC192BFEF71CFD6F
:101980009FED5F1B53EC112BFEF719FD53EC1C2B45
:10199000FEF76EFC41EC190B51EC1B0B53EC192BB1
:1019A000FEF766FCCDE902019DED020B53EC1B2B0B
:1019B00051EC100BFEF7FDFC53EC192BFEF7FCFC71
:1019C0009DED020B41EC190B53EC102B51EC100B5D
:1019D000FEF7F5FCCDE90A014B489DED0A0B052108
:1019E000784400F0D6F89DED0A1B51EC100B53EC37
:1019F000112BFEF7E4FC9DED021B53EC112BFEF7BF
:101A0000DBFCCDE906019DED020B53EC192B51ECEB
:101A1000100BFEF7D4FC53EC192BFEF729FC9FEDBD
:101A20003C0B41EC190B53EC102B9DED060B51ECCC
:101A3000100BFEF7BEFC9DED060B41EC1B0B53ECAF
:101A4000102B9DED020B51EC100BFEF7B8FC53EC84
:101A50001B2BFEF726FD53EC192BFEF7AAFC9DED80
:101A6000021B53EC112BFEF7A4FC53EC1A2BFEF7D0
:101A7000A3FCCDE9020101EB065001150029C8BF06
:101A8000039015DC9DED020B324651EC100BFEF776
:101A9000C0FEFFF70BFA042808BF00F03DF93246FC
:101AA0009DED020B51EC100BFEF7B3FECDE90201E8
:101AB0009DED020B51EC180B53EC102BFEF77FFC45
:101AC000FFF72DBB00000000000090400000000068
:101AD000FE822B654715973C00CC904000346F3F49
:101AE00001FCFFFF0000E03F744E0000FFFF0F000D
:101AF00000000000432EE63F396CA80C615C20BE5C
:101B0000EF39FAFE422EE63F444D0000000000008F
:101B1000000000000000004000B52DED048BB0EE89
:101B2000409AF0EE609A83B051EC190BFEF788FEF4
:101B300041EC180B18EE100A18EE901A8DED008B80
:101B4000002818BF0120084320F00040C0F17F604A
:101B500000F1E040C00F14D019EE101A19EE900AEF
:101B60008DED009B002918BF0121084320F00040A3
:101B7000C0F17F6000F1E040C00F04BF012000F021
:101B8000EBF8B0EE480A03B0F0EE680ABDEC048B47
:101B900000BD70B504462DED028B4D1E00EBC50057
:101BA000B0EE408AF0EE608A90ED000B35F0060052
:101BB00017D053EC182B51EC100BFEF700FC41EC46
:101BC000100B6D1E04EBC50090ED001B51EC100BCB
:101BD00053EC112BFEF74CFB41EC100B35F00600DB
:101BE000E7D1022D36D0042D1CD0062D1CBFBDEC34
:101BF000028B70BD53EC182B51EC100BFEF7DFFB82
:101C000094ED0A1B53EC112BFEF732FB53EC182B0F
:101C1000FEF7D5FB94ED081B53EC112BFEF728FBC8
:101C200041EC100B53EC182B51EC100BFEF7C7FBDB
:101C300094ED061B53EC112BFEF71AFB53EC182BFB
:101C4000FEF7BDFB94ED040B53EC102BFEF710FBDD
:101C500041EC100B53EC182B51EC100BFEF7AFFBC3
:101C600094ED021B53EC112BFEF702FB53EC182BE7
:101C7000FEF7A5FB94ED001B53EC112BFEF7F8FAD1
:101C8000BDEC028B41EC100B70BD000000000000A9
:101C90009FED070B10B553EC102B9FED070B51EC8C
:101CA000100BFEF7FEFB41EC100B10BD0000000016
:101CB0000000000000000000000000000000F03FF5
:101CC00010B553EC112B51EC100BFEF7D1FA41EC8F
:101CD000100B10BD000000009FED050B10B553EC7C
:101CE000102B51EC100BFEF7DCFB41EC100B10BD80
:101CF00000000000000000009FED050B10B553EC44
:101D0000102B51EC100BFEF75AFB41EC100B10BDE1
:101D100000000000000000709FED050B10B553ECB3
:101D2000102B51EC100BFEF74AFB41EC100B10BDD1
:101D3000000000000000001002E008C8121F08C1E7
:101D4000002AFAD170477047002001E001C1121F3C
:101D5000002AFBD17047000001490860704700006D
:101D6000640100202DE9FF5FDDE90220010DDDF8AF
:101D700038B0024318D044F61050A1F2FF3141436D
:101D80000D140F98012820D0A5EB0B00401C5FEA32
:101D9000000A4FF00004474EDFF81C91A046504661
:101DA00016D5CAF1000728E00F98012443A20128A4
:101DB00008D0002100980F9BC0E90021C0E9024330
:101DC000BDE8FF9F6FEA0B01F4E7CBF10000DEE70F
:101DD000074612E0F80707D02246334640464946F8
:101DE000FEF7EDFA804689462246334610461946EC
:101DF000FEF7E5FA04460E467F10002FEAD1DDE932
:101E00000201BAF1000F42464B4602DAFEF7D7FA5A
:101E100001E0FEF746FB04460E460022284BFEF783
:101E200079FD03D84FF0FF30014607E00022254B33
:101E300020463146FEF71CFAFEF753FD102409E058
:101E4000002C0ADB0A220023FEF7FDFB019B303247
:101E50001A55641E50EA0102F2D1641C019AC4F1C1
:101E6000110314440F9A012A03D0012208430DD113
:101E70000AE0084304D000204FF0110B0F9080E7D8
:101E8000A3EB0B056D1E0DE05B4504DD4FF000027A
:101E900005F1010504E003DA4FF00002A5F10105A8
:101EA000002AECD000980F99C0E90231C0E9004542
:101EB00086E70000000024400000F03F30000000F2
:101EC0000000F0430000E03F2DE9FF4F95B09B4636
:101ED0008946064600250FE2252877D100242746AB
:101EE000F84A0121059400E0044316F8013F203B25
:101EF00001FA03F01042F7D130782A2811D06FF0A0
:101F00002F033078A0F13002092A16D8059A44F040
:101F1000020402EB820203EB42021044761C05909D
:101F2000EFE759F8042B0592002A03DA504244F4F3
:101F30000054059044F00204761C30782E2816D107
:101F400016F8010F44F004042A280DD06FF02F0278
:101F50003078A0F13003092B09D807EB870302EB97
:101F60004303C718761CF3E759F8047B761C3078D6
:101F70006C280FD006DC4C2817D068280DD06A28B2
:101F800014D104E0742810D07A280FD10DE044F465
:101F900000140AE044F4801401E044F44014727820
:101FA000824202D104F58014761C761C30786628B3
:101FB0000BD013DC582877D009DC002875D04528D1
:101FC000F6D04628F4D047281AD19DE118E06328BE
:101FD00035D0642879D0652812D195E1702873D066
:101FE00008DC6728F1D069286FD06E280DD06F28E3
:101FF00006D1B5E073282CD0752875D0782874D018
:102000005A46179990476D1C75E1C4F30250022897
:1020100009D003280DD0D9F8001004280DD00D6088
:1020200009F1040967E1D9F80010EA17C1E9005283
:10203000F6E7D9F800100D80F2E70D70F0E719F817
:10204000041B8DF8001000208DF80100EA460120E5
:1020500003E059F804AB4FF0FF3061074FF0000187
:1020600002D40DE008F101018846B9420FDA80453B
:10207000F8DB1AF808100029F4D108E008F1010192
:1020800088468142FADB1AF808100029F6D1059833
:102090005B46A0EB080721463846179A00F094FAF1
:1020A000284400EB080507E04DE029E10DE01AF8AF
:1020B000010B5A4617999047B8F10108F7D25B46D1
:1020C00021463846179A13E142E00A220092C4F3EF
:1020D00002524FF0000A022A08D059F804CB032A12
:1020E0004FEAEC710AD00DE029E02AE009F107017E
:1020F00021F00702F2E802C1914609E00FFA8CFCD8
:102100004FEAEC71042A03D14FFA8CFC4FEAEC71D0
:10211000002907DA0A460021DCF1000C61EB02011C
:102120002D2202E0220504D52B228DF80420012265
:1021300003E0E20701D02022F7E7904659E00A21A8
:1021400002E010220DE010214FF0000A00910BE098
:1021500010224FF0000A44F004040827009203E024
:1021600008224FF0000A0092C4F30252022A05D05E
:1021700059F804CB0021032A08D009E009F107012E
:1021800021F00702F2E802C1914605E01FFA8CFC3B
:10219000042A01D10CF0FF0C4FF00008220728D5CB
:1021A000702806D0009B83F0100353EA0A0305D081
:1021B0000EE040228DF80420012208E05CEA0102D2
:1021C00006D030228DF804208DF8050002229046BA
:1021D000009B83F0080353EA0A030AD15CEA010278
:1021E00001D1620705D530228DF804204FF0010897
:1021F0007F1E582804D034A003900EA802900DE052
:1022000036A0F9E753466046009AFEF71CFA84466A
:102210000398825C0298401E029002705CEA010002
:10222000F0D1029806A9081A00F1200A600702D529
:1022300024F4803400E00127574502DDA7EB0A00B3
:1022400000E0002000EB0A01009005984144401A8C
:102250000590E00306D45B462146179A059800F0E6
:10226000B3F90544002706E001A85A46C05D179956
:1022700090476D1C7F1C4745F6DBE0030CD55B46A1
:102280002146179A059800F09FF9054404E0302094
:102290005A46179990476D1C0099481E00900029D6
:1022A000F5DC08E0029802995A460078491C029130
:1022B000179990476D1CBAF10001AAF1010AF1DCEF
:1022C00065E10000092801003031323334353637FA
:1022D0003839616263646566000000003031323372
:1022E0003435363738394142434445460000000012
:1022F00000F058F90544761C307800287FF4ECADE6
:1023000019B02846BDE8F08F620700D4062709F10E
:10231000070222F0070CFCE80223E14603F0004824
:102320005FEA080C02D00FF2702C0DE05FEA045C4B
:1023300002D50FF2682C07E05FEAC47C02D00FF2EE
:10234000602C01E0AFF2700C4FF0FF3823F0004337
:10235000CDF850C065280CD006DC452809D04628A9
:102360001DD047283DD13DE0662818D067287ED192
:1023700038E00021112F01DB112000E0781CCDE9AD
:10238000000106A90EA8FFF7EDFCDDE90F010E9A8A
:1023900003910021009207F1010A04914DE04FF0F2
:1023A00000400097CDE9011006A90EA8FFF7DAFC5E
:1023B000DDE90F0203920E9B11990022DDF80CA0BB
:1023C0000093049211B9791C00EB010AB7EB0A00E3
:1023D00004D4C0F1FF3007F1010A0490AAEB070012
:1023E000019044E0012F00DA01270021112F01DDC7
:1023F000112000E03846CDE9000106A90EA8FFF73C
:10240000B1FCDDE90F010E9A0391002104910092C5
:10241000BA4621070CD40399514500DA8A46BAF12D
:10242000010F05DD009AAAF10101515C302908D0A5
:10243000B84202DA10F1040F06DA0121CDE90110E9
:1024400015E0AAF10101E9E7002805DC049901443F
:102450000491AAEB000102E0411C514500DD8A46CF
:102460000499401A401C01904FF000400290200750
:1024700004D40198504501DBCDF8048000208DF88C
:102480004F0002980DF14F07B0F1004F25D02B20DF
:102490000E9002984FF0020800280CDA4042029099
:1024A0002D200E9007E00A210298FEF7B6F8303191
:1024B000029007F8011DB8F10001A8F10108F2DC53
:1024C00002980028EFD1791E0E980870307800F03D
:1024D000200040F0450007F8020D12A8C01B00F1D3
:1024E00007081498007800B1012000EB0A01019858
:1024F00001EBE07105984144401A401E0590E0034D
:1025000006D45B462146179A059800F05DF805440D
:102510001498007818B15A46179990476D1CE0033B
:1025200024D55B462146179A059800F04DF80544DE
:102530001CE00498002807DBDDE90301884203DD85
:102540000098405C179901E0179930205A4690474F
:10255000049805F10105401C04900198401E01906B
:1025600004D12E205A46179990476D1CBAF10001EC
:10257000AAF1010ADDDC05E017F8010B5A461799AC
:1025800090476D1CB8F10001A8F10108F4DC5B462E
:102590002146179A0598ABE62D0000002B0000009D
:1025A000200000002DE9F041044600251E46174694
:1025B000880404D405E039462020B0476D1C641E11
:1025C000F9D52846BDE8F0812DE9F0410446002503
:1025D0001E469046C80301D5302700E02027880416
:1025E00004D505E041463846B0476D1C641EF9D558
:1025F0002846BDE8F081816841F00801816000BF94
:10260000816801F008010029FAD1816841F00401D4
:10261000816000BF816801F004010029FAD1704790
:1026200030B5012902D002291AD10CE0C36A23F483
:102630007003C362C36A541E4FF4700505EA045464
:102640002343C3620DE0836B23F440138363836BE6
:10265000541E4FF4401505EA04542343836300E0FD
:1026600000BF00BF30BD000010B5002000F02CF905
:10267000002202212D4800F0BEF9012211022B4850
:1026800000F0B9F90021294800F052F80422022193
:102690002648FFF7C5FF052300221146234800F016
:1026A000A7F8052301221146204800F0A1F80523D0
:1026B000022211461D4800F09BF805230322114613
:1026C0001A4800F095F84FF440520221174800F0E4
:1026D00062F801220221154800F03EF80C23802206
:1026E0000021124800F0FEF8104800F018F902210D
:1026F0000E4800F0E4F804210C4800F0E0F8042152
:102700000A4800F0C6F8094800F01DF8012000F062
:10271000DDFC0648FFF76FFF4FF4407001F0C0F991
:1027200000221146122001F059F910BD0024014089
:1027300021B1826842F40062826003E0826822F480
:10274000006282607047816801F0010119B98168F7
:1027500041F001018160704772B101F001031BB1CA
:10276000836843F48013836001F0020393B18368AC
:1027700043F4004383600DE001F001031BB1836863
:1027800023F48013836001F002031BB1836823F4F8
:10279000004383607047012902D0022910D107E06D
:1027A000836823F46023836083681343836008E0B5
:1027B000836823F4E043836083681343836000E00D
:1027C00000BF00BF704702688A430260704702463C
:1027D000002013680B4003B10120704710B50F2390
:1027E00004220021014800F089FE10BD00080140CC
:1027F000F0B50C46876BC7F30156856BE71CBF1B12
:1028000007EB870C1F2707FA0CF7BD43E71CBF1B1C
:1028100007EB870702FA07F73D4385630A2A0DD2C3
:10282000016902EB420C072707FA0CF7B94302EBE8
:10283000420703FA07F73943016112E0122A10D266
:10284000C168A2F10A0707EB470C072707FA0CF744
:10285000B943A2F10A0707EB470703FA07F7394321
:10286000C160F0BD02460B4633B1012B06D0022BEE
:1028700006D0032B08D105E0D16B07E0116C05E011
:10288000516C03E0916C01E0002100BF00BF88B2F1
:10289000704701F001021AB1426842F04002426002
:1028A00001F002021AB1426842F02002426001F0D7
:1028B00004021AB1426842F0800242607047026826
:1028C0008A430260704700000549096821F47021BD
:1028D000034A116011460968014311607047000006
:1028E0000424014030B5B1F5007F06D1D0F8804016
:1028F00044F40074C0F8804005E0D0F8804024F42F
:102900000074C0F8804050F8804F24F4FE740460D6
:10291000046842EA03052C4340F8804930BDD0F8F2
:10292000801041F00101C0F880107047F0B51D46DD
:1029300006290CD2436B01EB81071F26BE40B3432F
:1029400001EB810602FA06F63343436322E00C29C9
:102950000ED2036B8E1F06EB86071F26BE40B343C5
:102960008E1F06EB860602FA06F63343036311E078
:1029700010290FD2C36AA1F10C0606EB86071F26A9
:10298000BE40B343A1F10C0606EB860602FA06F63A
:102990003343C3620A2A0CD2046902EB42070726BA
:1029A000BE40B44302EB420605FA06F63443046126
:1029B00011E0122A0FD2C468A2F10A0606EB4607FC
:1029C0000726BE40B443A2F10A0606EB460605FA06
:1029D00006F63443C460F0BD01F001021AB182680A
:1029E00042F48002826001F002021AB1826842F46D
:1029F000001282607047AAB101F480731BB1436872
:102A000043F48073436001F480631BB1436843F473
:102A10008063436001F00203CBB1836843F002039B
:102A2000836014E001F480731BB1436823F4807366
:102A3000436001F480631BB1436823F48063436007
:102A400001F002031BB1836823F002038360704727
:102A500010B52DED0C8B0446B0EE408AF0EE608A86
:102A6000B0EE419A19EE100AFDF7A8FD41EC1D0BDE
:102A70009FED180B53EC102BFDF7A1FC41EC1C0B48
:102A800053EC1C2B9FED150B51EC100BFDF709FDC2
:102A900041EC1B0BFDF7A5FD0AEE100A3AEE280AE1
:102AA000C8EE800AF0EE60AA94ED010A30EE080A42
:102AB000D4ED000A30EE600A20EE2A0AF0EE409AC9
:102AC00084ED008AC4ED019AB0EE690ABDEC0C8B6E
:102AD00010BD0000182D4454FB21194000000000D7
:102AE0000000F03F30B502460B46002112E04C1CBE
:102AF00052F8244052F82150601B002801DB0446A4
:102B000000E04442322C04DD05480068401C044CBF
:102B10002060491C581E8842E9DC0148006830BD2D
:102B2000A000002000EE100AF8EEC00A00EE101A15
:102B3000B8EEC01A80EE810ADFED020A20EE200A0C
:102B4000704700000000C8422DE9F0412DED0A8BCE
:102B500005460E469FED280AB0EE408A002426E086
:102B6000611C55F8211055F82420881AFDF708FD3E
:102B700041EC1C0B9FED211BB0EE4C0AF0EE6C0AF1
:102B8000FEF7AEF9B0EE40AAF0EE60AA18EE100A19
:102B9000FDF714FD41EC1B0B53EC1A2BFDF768FB02
:102BA00041EC190BFDF71DFD08EE100A641C701EA8
:102BB000A042D5DC00EE100AB8EEC00AC8EE000A4A
:102BC00010EE907A3846FDF7F9FC41EC1A0BB0EEA6
:102BD0004A0AF0EE6A0AFEF79FFFB0EE409AF0EE66
:102BE000609A51EC190BFDF7FCFC00EE100ABDECED
:102BF0000A8BBDE8F081000000000000000000002A
:102C0000000000402DE9F0412DED0C8B06460C46EE
:102C10009FED370AB0EE408A9FED350AB0EE409A3C
:102C200000250AE056F8250000EE100AB8EEC00AAA
:102C300030EE080AB0EE408A6D1CA542F2DB00EED1
:102C4000104AB8EEC00AC8EE008A00252BE056F8FC
:102C5000250000EE100AB8EEC00A30EE680A10EE49
:102C6000101A0846FDF7AAFC41EC1D0B9FED211B35
:102C7000B0EE4D0AF0EE6D0AFEF732F9B0EE40BA52
:102C8000F0EE60BA19EE100AFDF798FC41EC1C0B4F
:102C900053EC1B2BFDF7ECFA41EC1A0BFDF7A1FCF2
:102CA00009EE100A6D1CA542D1DB601E00EE100A71
:102CB000B8EEC00AC9EE000A10EE907A3846FDF769
:102CC0007DFC41EC1B0BB0EE4B0AF0EE6B0AFEF7FD
:102CD00023FFB0EE40AAF0EE60AA51EC1A0BFDF70C
:102CE00080FC00EE100ABDEC0C8BBDE8F08100000A
:102CF00000000000000000000000004010B50221AC
:102D00006E48FFF760FD00BF02216C48FFF75FFDD2
:102D10000128F9D16A4800686A49086067484C3060
:102D2000006880086649086067480068801C66493A
:102D30000860644800686249096888424DDA63485F
:102D40000078E0B35F48006800EE100AB8EEC00AF1
:102D50005F4880ED000A5F4991ED000AB5EEC00AB8
:102D6000F1EE10FA33D091ED000A0146D1ED000AE0
:102D700030EE600ABDEEC00A10EE100A002801DB3A
:102D8000014600E04142B1F5967F20DD4E480068E3
:102D90004EF66021B1FBF0F0322809D94A480068AC
:102DA000B1FBF0F0782803D2474800684A49086030
:102DB0000020454908609FED490A454800E006E0CB
:102DC00080ED000A9FED450A424880ED000A01208F
:102DD0004349087000203D4908703A480068384966
:102DE0000968884211DD3E48007840B135480068E6
:102DF00000EE100AB8EEC00A364880ED000A002046
:102E0000374908700120314908702F4800680028B0
:102E10004AD1344800680A280FDB00203149086095
:102E20002D48006830492F4A126841F822002D4889
:102E30000068401C2B4908600BE0274800682A49BD
:102E4000284A126841F8220026480068401C25499B
:102E500008602548406A38B3002024490880244986
:102E600008600EE020482249096830F821001F4917
:102E7000098808441D4908801D480068401C1C49F9
:102E800008601B4800680A28ECDB184800880A2103
:102E900090FBF1F015490880084600884EF6602145
:102EA00091FBF0F01349086007480068B0F5966F91
:102EB00002D900200449086010BD0000002801402C
:102EC0006C0000207000002080000020BD00002069
:102ED000B4000020B80000207400002000000000B2
:102EE000BC00002078000020A40100208400002005
:102EF000880000206800002070B505460E460024BA
:102F00005848006830445749086031462846FFF762
:102F1000E9FD5448016854480068FFF703FE534830
:102F200080ED000A5048016851A0FDF7AFFF4F48FF
:102F300090ED000ABDEEC00A10EE101A4FA0FDF78A
:102F4000A5FF00BF12E055F824005049504A12680E
:102F500041F822004E480068401C4D490860084670
:102F60000068322801D100200860641C0A2CEADBCA
:102F70004648D0F8C400002870D044480068B0F536
:102F8000167F6BDD434890ED000A434880ED000A50
:102F9000424890ED000A424880ED000A32213B4849
:102FA000FFF730FE3B4880ED000A32213748FFF73B
:102FB000CBFD3A4880ED000A374890ED000AB5EEA7
:102FC000C00AF1EE10FA23D0354890ED000AB5EEB4
:102FD000C00AF1EE10FA1BD02F4890ED000A2D48E0
:102FE000D0ED000A30EE200AF0EE000A80EE201A42
:102FF00080ED001A2A4890ED000A2848D0ED000A1A
:1030000030EE200AF0EE000A80EE201A80ED001A61
:10301000204890ED000ADFED230AB4EEE00AF1EE5D
:1030200010FA08D290ED000ABDEEC00A10EE101A98
:103030001DA0FDF72BFF194890ED000ADFED1D0ADA
:10304000B4EEE00AF1EE10FA08D290ED000ABDEEFF
:10305000C00A10EE101A18A0FDF718FF9FED1A0A0B
:1030600070BD0000A8000020A0000020A4000020E7
:103070004E4E3530203D2025640D0A00504E4E3511
:1030800030203D2025640D0A00000000CC01002006
:103090007C00002090000020980000209400002078
:1030A0009C0000200000164353444E4E203D202536
:1030B000640D0A000000F042524D535344203D205D
:1030C00025640D0A000000000000000003490860AC
:1030D00000BF024909680029FBD17047D4000020D5
:1030E0000448006820B103480068401E0149086098
:1030F00070470000D400002011E000214FF0E022D2
:1031000011610B495161002191610521116100BFDD
:103110004FF0E021096901F480310029F8D0010065
:10312000A0F10100E9D14FF0E022116170470000E9
:10313000BFD4010082B0CDE9000121F00040019030
:103140009DED000B02B051EC100B70470021B4EE66
:10315000E00AF1EE10FA4EDD30480078F0B3304866
:10316000C0ED000A2F4A92ED001AB5EEC01AF1EE3A
:1031700010FA3AD092ED001A0246D2ED001A31EE62
:10318000611ABDEEC11A11EE100A002801DB0246D9
:1031900000E04242192A28DD214A92ED001A214A14
:1031A000D2ED001A31EE611ABDEEC11A11EE100A0D
:1031B000002801DB024600E0424201EE102AB8EE90
:1031C000C11A194A82ED001A184800684EF66022AA
:1031D00092FBF0F1134890ED001A00E005E014486E
:1031E00080ED001A0020114A10600120114A107071
:1031F00000200A4A1070B4EEE00AF1EE10FA0BD289
:103200000C48007810B10748C0ED000A0120034ABD
:1032100010700020074A1070084670471E000020FA
:1032200020000020240000202C000020300000207E
:10323000280000201D00002070B504460D4600BF88
:103240000721094802F009FA0028F9D0214606486A
:1032500002F0B1F900BF0621034802F0FEF9002890
:10326000F9D0204670BD00000038014010B5074875
:1032700000F082FA054800F05FFA40F2157001F0A4
:1032800079FA00200249087010BD00000054004087
:10329000E000002000B503464FF47A7103FB01F013
:1032A00000F001F800BD04E000BF00BF00BF00BF98
:1032B00000BF0100A0F10100F6D1704770B50446CF
:1032C0000D4600260FE03046711C8EB247F2305199
:1032D000884205DDFFF7CAFF00F010F8012070BD3D
:1032E0000120FFF7E0FF2146034800F063FAA842FF
:1032F000E9D00020F3E700000054004010B5154865
:10330000007830BB144800F017FA40F2036001F077
:1033100041FAC02303221C21104800F0EFF840F2CC
:10332000157001F037FA00224CF250310A4800F0D3
:103330005BF9A02300221146074800F054FA064822
:1033400000F01FFA0121044800F036F9012001497C
:10335000087010BDE000002000540040000C014047
:103360002DE9F84380460D4617461C46DDF82090AF
:10337000012140F20160FFF7A1FF012801D1BDE862
:10338000F883022C03D100215B4800F021F95A4850
:1033900000F037FA00214FF4A060FFF78FFF0128FB
:1033A00000D1ECE76FF001024146534800F011FAFA
:1033B000002140F20150FFF781FF012800D1DEE734
:1033C00040F201514C4800F0E1F9002140F2075071
:1033D000FFF774FF012800D1D1E7474800F0D1F989
:1033E000B9F1010F06DD28128DF80000E8B28DF862
:1033F000010002E0E8B28DF8000000260EE01DF8A2
:1034000006103D4800F094F9002140F20250FFF709
:1034100055FF012800D1B2E7701CC6B24E45EEDB65
:10342000354800F0EEF900214FF4A060FFF746FFA9
:10343000012800D1A3E7012241462F4800F0C9F935
:10344000032C03DA00212C4800F0B6F8002140F2EA
:103450000150FFF733FF012800D190E740F20151FE
:10346000254800F093F9012C02D1234800F0CEF951
:103470002AE0032C0BD1002140F20250FFF71EFF7F
:10348000012800D17BE700211B4800F095F8022CB1
:103490000AD1002140F20250FFF710FF012800D1AD
:1034A0006DE7154800F0B2F90120FFF7F3FE40F296
:1034B0000651114800F07EF930B10F4800F034F9A0
:1034C00038707F1C601E84B2002CD2D10A49096872
:1034D00001F400704FF40071FFF7F0FE012800D1F5
:1034E0004DE70121044800F067F80121024800F08F
:1034F0006FF8002043E7000000540040F0B5044698
:1035000016460025002201F00F0501F0100747B113
:10351000042E05D145F00305E76B1F43E76300E088
:10352000354300201EE0012787401F40C7B12268B5
:103530004FEA800C0F2707FA0CF7BA43870005FA09
:1035400007F73A43282904D1012787401F406761C4
:1035500005E0482903D1012787401F4027612260E9
:10356000471CB8B20828DED3082022E00127874094
:103570001F40E7B16268A0F108074FEA870C0F27E8
:1035800007FA0CF7BA43A0F10807BF0005FA07F7DE
:103590003A43282904D1012787401F40676105E08D
:1035A000482903D1012787401F4027616260471CDB
:1035B000B8B21028DAD3F0BD012904D1026842F470
:1035C0008062026003E0026822F480620260704759
:1035D00021B9026842F40062026003E0026822F44A
:1035E00000620260704700002DE9F05F04460E465D
:1035F00092460EB900BFFEE7022001F001F807462F
:103600004648B7FBF0F8B8F13C0F01D34FF03C0847
:10361000D4F804B02BF07F0B4BEA080BC4F804B0CD
:103620003F4886421ED83D48B7FBF0F000F1010943
:10363000B9F13C0F02D33C20206207E0B9F1020F40
:1036400002D80220206201E0C4F820907000B7FB8D
:10365000F0F5042D00D20425E069C5F30B01084301
:10366000E06158E02F4886422CD84FF4967008FB52
:1036700000F04FF47A71B0FBF1F0401C2062BAF117
:10368000000F08D106EB4600B7FBF0F5E06920F427
:103690008040E06109E006EBC60000EB0610B7FBD6
:1036A000F0F5E06940F48040E061C5F30B0008B933
:1036B00045F00105E06940F40040E061E06928431D
:1036C000E06128E0C8EB0810C0004FF47A71B0FB4D
:1036D000F1F0401C2062BAF1000F08D106EB460061
:1036E000B7FBF0F5E06920F48040E06109E006EB0B
:1036F000C60000EB0610B7FBF0F5E06940F480402F
:10370000E061E06940F40040E061E0692843E06185
:103710000120C4F89000BDE8F09F000040420F0077
:10372000A0860100801A060001460869C0B27047F1
:10373000CAB202617047000010B504460D4820442B
:1037400018B1B0F5806F12D108E040F2154001F0D9
:1037500041F840F2154001F02DF809E040F2164022
:1037600001F038F840F2164001F024F800E000BF04
:1037700000BF10BD00ACFFBF016821F00101016076
:103780007047016841F001010160704710B540F2D7
:103790000152914202D1426982690AE000EB911222
:1037A000126801F01F040123A3409A4300EB911318
:1037B0001A6010BD10B5024602EB9110006801F0CE
:1037C0001F040123A340184008B1012010BD0020B0
:1037D000FCE712F1020F02D121F0010101E041F0FA
:1037E00001010161704730B50C460021016821F0EC
:1037F000020121430160C3F3090342EA0305856026
:1038000030BD016841F4807101607047016841F486
:1038100000710160704700009FED040A80ED000A0E
:103820009FED020A80ED010A7047000000000000D1
:103830007CB501461F4D2B682C680025019500952D
:10384000002000BF12E01B4D55F820509D4203DDC3
:10385000184D55F820300190164D55F82050A542CE
:1038600003DA144D55F820400090401C0528EADB8F
:10387000114D2D7845B9114D2D68A94204DC0F4D2D
:103880002D680F3D8D4205DD6A460A4E156846F8E3
:10389000251004E001AA074E156846F82510054DCD
:1038A0002D692DB1044D2D7885F00105024E35703E
:1038B0007CBD00007C0100205C000020380000205E
:1038C00080ED000AC0ED010A80ED021AC0ED031A76
:1038D00070470000B0EE401A9FED040A21EE000A86
:1038E000DFED031A01EEA00A704700006612353FB3
:1038F00034DB953EFDF78CFA01F0D6F800F02CFF92
:10390000FEF76CFF01F00FFCFEF7AEFE00F0D2F800
:1039100001210B48FFF760F801F062FAF7EE001A98
:103920009FED081ADFED080A9FED080A0848FFF727
:10393000C7FF01F0B9F800F0CDFF00BFFEE70000BF
:103940000028014000000000CDCCCC3D9A99993E62
:10395000680100207047000001461D481D4A12689A
:1039600000EB820090ED000A1B48D0ED000A30EE1B
:10397000C00A80ED000AD0ED000A00EE101AB8EE81
:10398000400A30EE800A80ED000A00EE101AB8EE10
:10399000400A0F480F4A126800EB820080ED000ACF
:1039A0000C480068401C142290FBF2F302FB130049
:1039B000084A1060084890ED000AF3EE040A80EE11
:1039C000201ABCEEC10A10EE100A80B27047000047
:1039D000A8020020C8000020C40000202DE9F0410A
:1039E00003460D46164600240027A0462A480068D4
:1039F00000F4E060B0F5E06F03D100BF4FF00408C1
:103A000030E02548006800F4E060B0F5C06F03D1F5
:103A100001274FF0030825E01F48006800F4E0602C
:103A2000B0F5A06F02D10227B8461BE01A48006823
:103A300000F4E060B0F5806F03D103274FF0010878
:103A400010E01548006800F4E060B0F5407F03D155
:103A500004274FF0000805E04FF4A06000F020F8C4
:103A60000227B846C7F1040005FA00F4C8F10401C2
:103A70000F20C8403040044324010848C45403F0D8
:103A80001F01012088405911890001F1E021C1F88E
:103A90000001BDE8F08100000CED00E000E400E072
:103AA00002490143024A1160704700000000FA0514
:103AB0000CED00E010B540F2026000F06BFE40F249
:103AC0000A6000F067FE012000F064FD102304226C
:103AD00000212348FFF712FD012202212148FEF7B1
:103AE0008AFF00224FF480711E48FEF784FF4FF4D6
:103AF000602201211B48FEF74EFE00211948FEF707
:103B000017FE0020FEF7E0FE012211461548FEF7E1
:103B100087FD0723042200211248FEF707FF012238
:103B200011461048FEF718FE0C23802200210D4894
:103B3000FEF7D8FE0B48FEF7F2FE0A48FEF703FE3A
:103B40000120FFF7D9FA0748FEF755FD4FF4407002
:103B5000FFF7A6FF002211461220FFF73FFF10BD1E
:103B600000080140002801402DE9F04105460E46BD
:103B70002648076826480068001D01F0DEFD50B9A0
:103B80002348006890F82C100120884021490968DA
:103B9000814320480160681CD8B9D6B11E494868E5
:103BA0001B49096888601A4982680968CA6018490F
:103BB0000968091D8268516015490968091D8160FD
:103BC000154A134909684A6111460968491C116080
:103BD0001AE07C190E4800684460BC4207D20C48C9
:103BE0000168091D0D48006801F0CBFD0CE0084894
:103BF0000168091D0A48006801F0C3FD0948006812
:103C0000844201D207480460BDE8F081F80000203A
:103C1000E4000020FC000020B0040020EC000020A4
:103C2000E80000201401002010B5044601F0D0FD8A
:103C30002F480068401C2E4908602E48006840B993
:103C40002C4804600846006801280DD100F09AF95C
:103C50000AE02948006838B926480068C06AE16A65
:103C6000884201D82348046024480068401C234946
:103C7000086094F82C100120884021490968084305
:103C80001F490860E16A01EB81011E4A02EB8101D4
:103C90004868A0608268E260211D8268516081608E
:103CA000E16A01EB8101174A02EB81026261E16A7C
:103CB00001EB8101134A52F82110491CE26A02EB20
:103CC0008202104B43F8221001F0ACFD0A48006854
:103CD00068B108480068C06AE16A884207D24FF0BC
:103CE000805009490860BFF34F8FBFF36F8F10BD3D
:103CF000F4000020E400002000010020100100205A
:103D0000FC000020C003002004ED00E010B501F02D
:103D10005FFD0C48006890B90B4801F022FD0B488C
:103D200001F01FFD08480A49086008480949086071
:103D300000220C21052002F089F80249086001F0F8
:103D400071FD10BD2C010020C4040020D804002007
:103D5000240100202801002010B516E001F038FDF4
:103D60000C48C068C468201D01F0E7FC0A480068E0
:103D7000401E0949086009480068401E074908605C
:103D800001F050FD204600F020F8044800680028AB
:103D9000E4D110BD9C040020F4000020F0000020BD
:103DA00070B504460D46206C70B1216CE06801448A
:103DB000E160D4E90210884201D32168E16028461D
:103DC000226CE168FCF730FA70BD10B50446206B38
:103DD00001F046FD204601F043FD10BD0146084AB2
:103DE000126812680AB9012200E000220A600A681B
:103DF00022B9034A1268D268106800E000207047B8
:103E00002401002030B54FF48843154800F0070422
:103E10002CB1C01D20F00700114C041B1B1B0246D7
:103E2000104C226000240F4D6C60D018083820F030
:103E300007000D4C206000240B4D2D686C600A4D6E
:103E40002D682C601146441A4C60074C24680C60A5
:103E5000064D4C682C60064D4C682C6030BD00004F
:103E6000EC0400203801002040010020480100201F
:103E70004401002000BFFFF76FFF064800680128DB
:103E8000F9D94FF0805004490860BFF34F8FBFF35A
:103E90006F8FF0E7C003002004ED00E02DE9F04152
:103EA00006460D4617469846069C0DB9246000E06C
:103EB0002760E66325640121204601F0FBFFBDE891
:103EC000F0812DE9FF5F81460F469246DDE90E6BDA
:103ED000109CAAF10100216B01EB800828F0070873
:103EE00008F0070008B9012000E0002050B900BF29
:103EF000502080F31188BFF34F8FBFF36F8F00BF47
:103F000000BFFEE77FB1002507E0795D04F13400D2
:103F10004155785D00B902E06D1C102DF5D300BF4E
:103F2000002143200155082E01D2012000E000208D
:103F300050B900BF502080F31188BFF34F8FBFF3FB
:103F40006F8F00BF00BFFEE7082E00D30726E66292
:103F50006664201D01F012FC04F1180001F00EFC53
:103F60002461C6F10800A061646249464046039A94
:103F700000F0FAFA2060BBF1000F01D0CBF800404E
:103F8000BDE8FF9F10B5002407E004EB84010F4A51
:103F900002EB810001F0E5FB641C082CF5D30C4812
:103FA00001F0DFFB0B4801F0DCFB0B4801F0D9FB13
:103FB0000A4801F0D6FB0A4801F0D3FB044809493E
:103FC000086004480849086010BD0000C0030020D4
:103FD0006004002074040020880400209C04002059
:103FE000B0040020E8000020EC00002010B50146DD
:103FF000164800E0006803688B42FBD30246436822
:1040000013448B4204D143684C6823444360014607
:104010000A464B6813440468A34211D10C4C036850
:104020002468A34208D04B680468646823444B604A
:1040300003681B680B6005E0054B1B680B6001E023
:1040400003680B60884200D0016010BD3801002079
:10405000400100202DE9F04104460D4616461F465A
:104060004FF0000865602461B5420CD8F01BA169CF
:10407000884202D34FF0010811E0211D0948006871
:1040800001F07FFB0BE0BE4204D2BD4202D34FF0F1
:10409000010804E0211D0448006801F072FB40465D
:1040A000BDE8F081280100202401002070B50546FC
:1040B00001F08EFBA86B08B9012400E0002401F098
:1040C000B1FB204670BD000070B505460E460E4897
:1040D0000068C068C468201D01F02FFB94F824001C
:1040E00000F0040028B132462946204600F0D6F8F8
:1040F00005E094F8240000F0FE0084F82400204637
:10410000216A884770BD0000240100207FB57FE050
:10411000019800287CDB039C606908B9012000E05D
:10412000002010B9201D01F008FB684600F0E2F8FD
:10413000054601980A2869D2DFE800F06805072ED5
:10414000365806082F3700BF00BF00BF94F8240080
:1041500040F0010084F824000298A2698118034607
:104160002A462046FFF776FFA8B194F8240000F015
:10417000040038B10298A26981182A46204600F04E
:104180008DF805E094F8240000F0FE0084F8240087
:104190002046216A88473AE000BF94F8240000F0E6
:1041A000FE0084F8240032E000BF94F8240040F0C0
:1041B000010084F824000298A061A06908B10120E0
:1041C00000E0002050B900BF502080F31188BFF3F9
:1041D0004F8FBFF36F8F00BF00BFFEE7A06941198B
:1041E0002B462A462046FFF735FF10E094F82400BE
:1041F00000F0020018B9204601F032FB05E094F807
:10420000240000F0FE0084F8240000E000BF00BF9E
:10421000002201A90348006801F0BAFE00287FF4DB
:1042200077AF7FBD2C010020F8B505460C4601F0A4
:10423000F1FC684600F05EF80646009820BB44B9E1
:10424000B54206D802F058F931462846FFF73CFF40
:104250001CE03CB10E480068006808B9012000E08D
:1042600000200446A91B22460A48006801F052FBC0
:1042700002F042F950B94FF0805007490860BFF38F
:104280004F8FBFF36F8F01E002F036F9F8BD0000E9
:10429000280100202C01002004ED00E070B5044648
:1042A0000D46164604E0A06905442046216A884769
:1042B000A06941192B4632462046FFF7CBFE002865
:1042C000F1D170BD09480068006808B9012000E01C
:1042D000002020B14FF0FF300549086005E0034899
:1042E0000068C0680068024908607047E800002064
:1042F0001401002070B5044601F08AFF0546074806
:104300000068854204D200F00BF80120206001E033
:104310000020206001480560284670BD340100205F
:1043200070B508E00D480068C06804684FF0FF31C0
:104330002046FFF7C9FE09480068006808B9012057
:1043400000E000200028EDD004480568044800681B
:10435000024908600248056070BD00002401002089
:10436000280100200E480068401C08B9012000E028
:10437000002050B900BF502080F31188BFF34F8F49
:10438000BFF36F8F00BF00BFFEE700BF502080F378
:104390001188BFF34F8FBFF36F8F00BF00BFFEE7E1
:1043A0005401002008B500BF6846FFF717FD04461A
:1043B00020460099FFF738FFFFF7A8FEF4E770B535
:1043C000044601F005FA94F9455010E0606A08B916
:1043D000012000E0002038B904F1240001F0FCFFC6
:1043E00018B101F075FB00E003E0681E45B2002D36
:1043F000ECDC00BFFF2084F8450001F013FA01F067
:10440000E7F994F9445010E0206908B9012000E070
:10441000002048B904F1100001F0DEFF08B101F0FE
:1044200057FB681E45B200E001E0002DECDC00BF48
:10443000FF2084F8440001F0F5F970BD2DE9F04744
:1044400005464FF0000901F0E5FB4248006808B955
:10445000FFF7D8FC75B105F00700C0F11008C8F1EE
:10446000FF30A84201D2012000E0002008B94544F5
:1044700000E00025012000EBE570002853D0002D5E
:1044800051D03548006885424DD8344E30460468D6
:1044900001E0264624686068A84202D2206800280D
:1044A000F7D12C48006884423DD0306800F10809FB
:1044B000206830606068401B102819D9671907F020
:1044C000070008B9012000E0002050B900BF5020CB
:1044D00080F31188BFF34F8FBFF36F8F00BF00BF12
:1044E000FEE76068401B786065603846FFF77EFD38
:1044F000194960680968081A174908600846006881
:1045000017490968884203D21348006814490860B3
:10451000606840F000406060002020601148006842
:10452000401C1049086001F0E7FF09F0070008B9D6
:10453000012000E0002050B900BF502080F3118816
:10454000BFF34F8FBFF36F8F00BF00BFFEE748463A
:10455000BDE8F08740010020440100203801002020
:10456000480100204C010020001F4FF080730360C1
:10457000001F21F001030360001F054B0360143886
:104580000260001F6FF002030360203870470000D4
:1045900065430008184B5968184B1940164BDA6AE6
:1045A00022F000520C2820D2DFE800F006070809AC
:1045B0001F0C1F0D1516171800BF00BF00BF41EAE2
:1045C000803113E000BF20F004004FF0805343EA35
:1045D000803319430AE000BF00BF00BF20F00C0089
:1045E00041EA803142F0005200E000BF00BF024BC0
:1045F0005960DA627047000000100240FF3FFFEF91
:104600002DE9F04F8CB0074600200A904AA090E8B0
:10461000004CC068CDE905BECDF810A007900FF2A0
:104620001C1ADAE9000ACDE9020A0FF2101ADAE9D7
:10463000000ACDE9000A44484068C0F381000B90AD
:104640000B9820B1012804D002283FD103E03F4A53
:104650003EE03E4A3CE03C48406800F4803CBCF50B
:10466000803F12D13848C06A00F08048B8F1000F8E
:1046700001D1364B00E0364B3348406800F4003936
:10468000B9F5003F02D15B0800E0324B2E4840688C
:10469000C0F383412C48406800F0006008B141F04D
:1046A00010012948406800F0804008B141F0200125
:1046B0000F2901D2891C06E00F2903D33E2901D816
:1046C000491C00E03F2103FB01F201E01F4A00BF4B
:1046D00000BF1D484068C0F3031504A8465D22FAD8
:1046E00006F419484068C0F3022502A8465D24FA82
:1046F00006F0099014484068C0F3C2251DF8056013
:1047000024FA06F0089037B1012F06D0022F06D008
:10471000032F0AD106E00A9208E00A9406E00998FD
:104720000A9003E008980A9000E000BF00BF0A98D2
:104730000CB0BDE8F08F0000000000000000000099
:1047400001020304060708090010024000127A0063
:10475000006CDC0200093D0010B540F2026000F080
:1047600019F840F2096000F015F80120FFF712FF78
:1047700010BD0000064A02EB9011096800F01F030B
:1047800001229A409143024B03EB90121160704753
:1047900000100240064A02EB9011096800F01F0366
:1047A00001229A401143024B03EB901211607047B3
:1047B00000100240064A02EB9011096800F01F0346
:1047C00001229A409143024B03EB90121160704713
:1047D00000100240064A02EB9011096800F01F0326
:1047E00001229A401143024B03EB90121160704773
:1047F0000010024070B5044608E014F8012B164979
:104800000888411C144B198014490A54207818B1A7
:10481000114800886428F0DB00250DE00F48415D59
:104820000F4800F0C8FE00BF07210D4800F015FF3B
:104830000028F9D0681C85B2074800888542EDDB66
:1048400000BF0621064800F008FF0028F9D000202C
:104850000149088070BD0000DC000020F802002043
:104860000044004000B52DED048B83B041EC190BE2
:10487000FBF7E6FF41EC180B18EE100A18EE901A41
:104880008DED008B002818BF0120084320F0004068
:10489000C0F17F6000F1E040C00F14D019EE101A93
:1048A00019EE900A8DED009B002918BF01210843E5
:1048B00020F00040C0F17F6000F1E040C00F04BF75
:1048C0000120FDF749FA51EC180B03B0BDEC048B45
:1048D00000BD00001CB50648012100238022CDE95F
:1048E000001004A1064801F04FFC01F045F91CBD81
:1048F0000000002073746172745F7461736B000058
:10490000054900081CB5044600F062FF1248032167
:1049100000234FF48062CDE9001010A1114801F08E
:1049200033FC1148022100238022CDE900100FA1A1
:10493000104801F029FC1048012100238022CDE914
:1049400000100EA10F4801F01FFC0F48006801F095
:1049500035F800F067FF1CBD040000207461736B24
:1049600031000000F94A0008080000207461736BF0
:1049700032000000254D00080C0000207461736BAC
:1049800033000000C54D0008000000200020002179
:104990003F4A126842F480323D4B1A6000BF401C0F
:1049A0003B4A126802F4003119B94FF6FF72904287
:1049B000F5D1374A126802F400320AB900BFFEE7A7
:1049C000334AD26942F08052314BDA61314A12687F
:1049D00042F440422F4B1A602D4A52682C4B5A60C9
:1049E0001A4652685A601A46526842F480625A6007
:1049F0001A46526822F440325A601A46526842F40B
:104A000040325A601A465268234B1A40204B5A6073
:104A10001A465268214B1A431D4B5A601A461268B7
:104A200042F080721A6000BF194A126802F00072E8
:104A3000002AF9D0174A126842F48032154B1A60E6
:104A400000BF144A526802F48032002AF9D0114A99
:104A5000126842F400320F4B1A6000BF0D4A5268D0
:104A600002F40032002AF9D0094A526822F0030207
:104A7000074B5A601A46526842F002025A6000BF61
:104A8000034A526802F00802002AF9D07047000079
:104A90000010024000700040FFFFC3B70000340860
:104AA00010B5FFF773FF10BD10B5124800684FF442
:104AB0007A71B0FBF1F4601EB0F1807F01D3012068
:104AC0000FE0601E4FF0E02148610F214FF0FF30F2
:104AD000FBF7AEFF00204FF0E0218861072008615E
:104AE000002008B100BFFEE70021481EFBF7A0FF31
:104AF00010BD0000D80000202DED028B82B00024F4
:104B00006846FEF789FE00BF04E000205F4941F8D7
:104B10002400641C052CF8DBB7E0002008EE100A26
:104B20005B4801685BA0FCF7B1F95E480068322879
:104B30000DDD5C480068642809DA5A4801685AA00B
:104B4000FCF7A4F95B4801685BA0FCF79FF95D489E
:104B5000007800287AD000F03BFE5B48008808EE21
:104B6000100A00205749087000F05CFE574890ED8D
:104B7000000A574880ED000A5448D0ED000AB8EE0C
:104B8000480AFEF7A7FE514880ED000A90ED000AA2
:104B900000F0EEFB9FED4F1ADFED4F0A4B4890ED12
:104BA000000A6846FDF754FF484880ED000A90ED82
:104BB000000ADFED4A0AB4EEE00AF1EE10FA02DD77
:104BC0001E20474908604648006838B145A0FCF7F8
:104BD0005DF943480068401E414908603B4890ED3C
:104BE000000AF1EE040A20EE200A80ED000A38489F
:104BF000D0ED000A354890ED000AFEF7A7FA3D49CE
:104C00000860324890ED000ABDEEC00A10EE101A9E
:104C100039A0FCF73BF937480068322831DD3548C8
:104C2000006864282DDA33480068FEF701FE364834
:104C30000068401C052190FBF1F201FB1200324993
:104C40000860002031490860002409E019E00F489D
:104C500050F824002D49096808442C490860641C58
:104C6000052CF4DB0948006958B128480068052183
:104C700090FBF1F0264908600846016825A0FCF782
:104C800005F90A2000F06CFE00BF46E77C01002019
:104C90006C0000207369676E616C203D2025750DE6
:104CA0000A0000006800002042504D203D2025648D
:104CB0000D0A000074000020494249203D2025646F
:104CC0000D0A00001C00002010000020140000202D
:104CD00018000020CDCC4C3F0AD7A33D0000C842AD
:104CE00060000020626F64796D6F76653D310D0A5A
:104CF00000000000340000207072657373757265E7
:104D00003D25640D0A000000440000203C00002006
:104D100038000020486561727420726174653D2519
:104D2000640D0A002DED048BFEF7E8FAFEF712FE83
:104D300032E0FBF71FFFB0EE408A184880ED008A92
:104D400090ED000AB5EEC00AF1EE10FA09D0006845
:104D5000FBF734FC41EC190B53EC192B10A0FCF7BA
:104D600095F815480068322811DD1348006864285A
:104D70000DDA1248406A12490968884207D00A21B0
:104D80000E48FEF7B9F80D48406A0D4908604FF427
:104D9000FA7000F0E5FD00BFCBE7000064000020E2
:104DA00043757272656E742054656D703A20252EBD
:104DB00031660D0A0000000068000020A4010020F8
:104DC000C00000204FF41640FBF7D2FF03A0FFF70E
:104DD00011FD02E0642000F0C3FDFBE78A00000043
:104DE0001FB540F20270FFF7D5FC154800F0ECF952
:104DF00042F6DF60ADF800000020ADF80200ADF82B
:104E00000400132002900020ADF806008DF80C007D
:104E100069460B4800F04CFA094800F013F80121EC
:104E2000074800F091FA064800F03CFA4FF4407051
:104E3000FEF736FE002211461E20FEF7CFFD1FBDF5
:104E400000080040016841F08001016070470000E7
:104E500010B531B101293FD002297DD003297CD181
:104E6000BFE0036A23F001030362836923F00303B5
:104E70008361036A148823430362036A23F00203F5
:104E80000362036A9488234303626A4B984202D008
:104E9000694B98421FD1036A23F004030362036A3B
:104EA000548823430362036A23F008030362036AFE
:104EB000D48823430362436823F4807343604368C8
:104EC000148923434360436823F4007343604368B9
:104ED000548923434360ABE0036A23F01003036269
:104EE000836923F440738361036A148843EA0413DB
:104EF0000362036A23F020030362036A948843EA8F
:104F0000041303624B4B984202D04B4B984226D17C
:104F1000036A23F040030362036A548843EA0413DC
:104F20000362036A23F080030362036AD48843EABE
:104F300004130362436823F4806343604368148965
:104F400043EA84034360436823F400634360436897
:104F5000548943EA840301E002E068E0436067E0CB
:104F6000036A23F480730362C36923F00303C361FC
:104F7000036A148843EA04230362036A23F4007378
:104F80000362036A948843EA04230362294B98422C
:104F900002D0294B984223D1036A23F48063036231
:104FA000036A548843EA04230362036A23F4006318
:104FB0000362036AD48843EA04230362436823F448
:104FC000805343604368148943EA04134360436891
:104FD00023F4005343604368548943EA0413436055
:104FE00026E0036A23F480530362C36923F4407309
:104FF000C361036A148843EA04330362036A23F437
:1050000000530362036A948843EA04330362094B42
:10501000984202D0084B984208D1436823F4804359
:1050200043604368148943EA8413436000E000BF8F
:1050300000BF10BD002C01400034014031B10129F6
:105040000CD0022913D0032922D118E0836923F060
:10505000700383618369134383611AE0836923F4D6
:10506000E0438361836943EA0223836111E0C369FA
:1050700023F07003C361C3691343C36109E0C369CB
:1050800023F4E043C361C36943EA0223C36100E040
:1050900000BF00BF704731B1012906D0022906D0F8
:1050A000032908D105E0426306E0826304E0C2639D
:1050B00002E0026400E000BF00BF704731B1012987
:1050C0000CD0022913D0032922D118E0836923F0E0
:1050D000080383618369134383611AE0836923F4BE
:1050E00000638361836943EA0223836111E0C3693A
:1050F00023F00803C361C3691343C36109E0C369B3
:1051000023F40063C361C36943EA0223C36100E07F
:1051100000BF00BF70470021018041808180C180B5
:1051200001814181704700B587B04FF4E060FFF71F
:1051300031FB4FF0804000F047F840F2AF40ADF84F
:1051400000000020ADF80200ADF8040041F63F7009
:1051500002900020ADF806008DF80C0069464FF073
:10516000804000F0A5F804A8FFF7D5FF0020ADF8B7
:1051700014000120ADF8100004AA00218007FFF7F9
:1051800067FE40F69F7200214FF08040FFF783FFDB
:10519000702200214FF08040FFF750FF002211469F
:1051A0004FF08040FFF78AFF4FF0804000F07AF820
:1051B0004FF44070FEF774FC002211461C20FEF7ED
:1051C0000DFC07B000BD000010B504463349601A5D
:1051D0008C4244D00CDCB4F1804F1CD030482044C9
:1051E00010B3B0F5806F28D0B0F5006F52D12DE02C
:1051F000B0F5806F3CD0B0F58E3F03D0B0F5923F54
:1052000048D13EE040F20B30FFF7E4FA40F20B30B9
:10521000FFF7D0FA3FE04FF48060FFF7DBFA4FF47E
:105220008060FFF7C7FA36E040F20140FFF7D2FA9C
:1052300040F20140FFF7BEFA2DE040F20240FFF7D6
:10524000C9FA40F20240FFF7B5FA24E040F2034009
:10525000FFF7C0FA40F20340FFF7ACFA1BE040F260
:105260000440FFF7B7FA40F20440FFF7A3FA12E058
:1052700040F20540FFF7AEFA40F20540FFF79AFA18
:1052800009E040F20D30FFF7A5FA40F20D30FFF7CC
:1052900091FA00E000BF00BF10BD00000010004008
:1052A00000FCFFBF016841F0010101607047000090
:1052B0000A8882621D4A90420ED0B0F1804F0BD016
:1052C0001B4A904208D01B4A904205D01A4A90428D
:1052D00002D01A4A90420BD1026822F0700202609A
:1052E00002684B881A43026002688B881A43026086
:1052F0008A68C262124A90420AD0124A904207D08B
:10530000026822F4407202600268CB881A4302608D
:10531000064A904202D0094A904201D10A7B0263B8
:10532000426942F00102426170470000002C0140D6
:105330000004004000080040000C00400034014020
:105340000010004000140040C2680A43C260704769
:10535000CA43026170470246D06800EA010310693F
:10536000084010B10BB1012070470020FCE700009D
:1053700010B52DED048BB0EE409A9FED580AB0EEBB
:10538000408A00249FED550AF0EE408A9FED530AB3
:10539000F0EE409ABCEEC90A10EE101A88B2FEF781
:1053A000DBFA00EE100AB8EE400AB0EE408A4C4834
:1053B000007898B94B4890ED000AB4EEC80AF1EEB7
:1053C00010FA0BD2012046490870464890ED000AB9
:1053D000454880ED000A00204449086040480078B4
:1053E000002873D03F4890ED000AB4EEC80AF1EEF1
:1053F00010FA6BDD90ED000A3D4880ED000A394857
:1054000090ED000A3848D0ED000A30EE600ADFED7A
:10541000390AB4EEE00AF1EE10FA54DD314890EDAD
:10542000000A3148D0ED000A30EE600ADFED320AA2
:10543000B4EEE00AF1EE10FA45D22C480068B0F55F
:10544000FA7F40DD2948006840004EF6602191FB5C
:10545000F0F02A490860084600682949294A12687C
:1054600041F8220027480068401C052190FBF1F21A
:1054700001FB12002349086000240BE0204850F88B
:10548000240000EE100AB8EEC00A30EE290AF0EE51
:10549000409A641C052CF1DB1948006998B1B1EE03
:1054A000040AC9EE800AF0EE608AB3EE090AF4EE4F
:1054B000C08AF1EE10FA06D2BDEEE80A10EE101A1C
:1054C00011A0FBF7E3FC002005490870054880EDBA
:1054D000008AB0EE680ABDEC048B10BD000000002D
:1054E000D0000020CC000020540000204800002004
:1054F0005000002000002042000096434C00002095
:10550000900100205800002042726561746820728A
:105510006174653D25640D0A000000002DE9F04727
:1055200004460D460027B846B94600261D49601AB4
:105530008C421CD006DC1C48204470B1B0F5806F52
:105540001FD10FE0B0F5806F16D0B0F56C4F18D1B9
:105550000320FFF755F8074614E00220FFF750F844
:1055600007460FE00220FFF74BF807460AE002204B
:10557000FFF746F8074605E00220FFF741F8074627
:1055800000E000BF00BF07EB5500B0FBF5F64FF69B
:10559000F07006EA000806F00F0948EA0900A0606A
:1055A000BDE8F087004C004000BCFFBF01464868E2
:1055B000C0F308007047C1F3080242607047000062
:1055C00010B504462049601A8C4228D006DC1F48DA
:1055D000204490B1B0F5806F33D117E0B0F5806F03
:1055E00026D0B0F56C4F2CD140F20E30FFF7F2F818
:1055F00040F20E30FFF7DEF824E040F21140FFF7F2
:10560000E9F840F21140FFF7D5F81BE040F21240F4
:10561000FFF7E0F840F21240FFF7CCF812E040F25A
:105620001340FFF7D7F840F21340FFF7C3F809E043
:1056300040F21440FFF7CEF840F21440FFF7BAF8FA
:1056400000E000BF00BF10BD004C004000BCFFBF29
:10565000C16841F40051C160704710B5024602EBC9
:105660009110006801F01F040123A340184008B105
:10567000012010BD0020FCE70A460021416921F409
:1056800000711143416170470A460021416921F4CC
:10569000807111434161704710B500EB911212689F
:1056A00001F01F040123A3401A4300EB91131A6079
:1056B00010BD70B5024600230024C1F389101058B4
:1056C00001F01F060125B54000EA050302EB9150E9
:1056D0000068C1F304460125B54000EA050414B191
:1056E0000BB1012070BD0020FCE7C26822F4C0624B
:1056F000C260C2680A43C26070470A460021C1689E
:1057000021F004011143C1607047026922F4405244
:10571000026102690A43026170470A460021C168BA
:1057200021F008011143C1607047C26822F4805221
:10573000C260C2680A43C260704701460A69D1E983
:1057400001309860D1E9010358605068884201D166
:1057500088685060002008611068401E1060106862
:10576000704700F1080141604FF0FF31816000F1A6
:105770000801C160016100210160704700210161E1
:10578000704710B502460B685C1C0CB9106907E045
:1057900002F1080000E04068446824689C42FAD99D
:1057A00044684C604C68A160886041600A6114687C
:1057B000641C146010BD42684A6093688B609368F3
:1057C00059609160086103685B1C036070470000CA
:1057D00000BF502080F31188BFF34F8FBFF36F8F4E
:1057E00000BF0E480068401C0C490860084600686D
:1057F000012812D10A480068C0B208B9012000E0AF
:10580000002050B900BF502080F31188BFF34F8FA4
:10581000BFF36F8F00BF00BFFEE770475401002049
:1058200004ED00E00D48006850B900BF502080F33F
:105830001188BFF34F8FBFF36F8F00BF00BFFEE72C
:1058400006480068401E054908600846006820B9FF
:10585000002080F3118800BF00BF70475401002072
:1058600070B506463546002E3BD0083D2C46606894
:10587000C00F50B900BF502080F31188BFF34F8F85
:10588000BFF36F8F00BF00BFFEE7206808B901209B
:1058900000E0002050B900BF502080F31188BFF312
:1058A0004F8FBFF36F8F00BF00BFFEE76068C00F70
:1058B000B8B12068A8B9606820F00040606000F0CE
:1058C000A9F9084960680968084406490860204643
:1058D000FEF78CFB04480068401C0349086000F098
:1058E0000BFE70BD440100205001002000204FF04D
:1058F000E02108618861064800684FF47A71B0FBC6
:10590000F1F0401E4FF0E021486107200861704728
:10591000D80000202DE9F04105460E4617462C46DA
:10592000FFF756FF94F94400401C10B9002084F89A
:10593000440094F94500401C10B9002084F845004B
:10594000FFF770FFA06B28B93A46314604F12400F6
:1059500000F0E0F82046FEF732FDBDE8F0810000DF
:1059600070B504460025D4B11248006808B901207A
:1059700000E0002050B900BF502080F31188BFF331
:105980004F8FBFF36F8F00BF00BFFEE700F042F9FB
:1059900000212046FEF7E8F800F0AEFD05463DB9CF
:1059A0004FF0805004490860BFF34F8FBFF36F8FF3
:1059B00070BD00002001002004ED00E070B5054638
:1059C000FFF706FF15B93248006800E02846044694
:1059D000201DFFF7B2FE78B9E06A00EB80002D4988
:1059E00051F8200040B994F82C10012088402A4931
:1059F0000968814328480160A06A18B104F11800C1
:105A0000FFF79BFE25480068401C24490860204899
:105A10000068844209D1211D2148FFF7CCFE2148AE
:105A20000068401C1F49086006E01F480068401ECF
:105A30001D490860FEF746FCFFF7F4FE14480068B5
:105A4000844202D02046FEF7C0F918480068E8B149
:105A50000F480068844219D11548006808B9012030
:105A600000E0002050B900BF502080F31188BFF340
:105A70004F8FBFF36F8F00BF00BFFEE74FF0805026
:105A80000C490860BFF34F8FBFF36F8F70BD0000EC
:105A9000E4000020C0030020FC00002010010020D2
:105AA0009C040020F0000020F400002000010020F1
:105AB0002001002004ED00E003490968016003496A
:105AC00009684160704700000C010020F8000020C8
:105AD00001200149086070470801002070B50446A4
